{
  "contractName": "Coin",
  "abi": [
    {
      "inputs": [],
      "stateMutability": "nonpayable",
      "type": "constructor"
    },
    {
      "anonymous": false,
      "inputs": [
        {
          "indexed": false,
          "internalType": "address",
          "name": "from",
          "type": "address"
        },
        {
          "indexed": false,
          "internalType": "address",
          "name": "to",
          "type": "address"
        },
        {
          "indexed": false,
          "internalType": "uint256",
          "name": "amount",
          "type": "uint256"
        }
      ],
      "name": "Sent",
      "type": "event"
    },
    {
      "inputs": [],
      "name": "minter",
      "outputs": [
        {
          "internalType": "address",
          "name": "",
          "type": "address"
        }
      ],
      "stateMutability": "view",
      "type": "function"
    },
    {
      "inputs": [
        {
          "internalType": "address",
          "name": "receiver",
          "type": "address"
        },
        {
          "internalType": "uint256",
          "name": "amount",
          "type": "uint256"
        }
      ],
      "name": "mint",
      "outputs": [],
      "stateMutability": "nonpayable",
      "type": "function"
    },
    {
      "inputs": [
        {
          "internalType": "address",
          "name": "receiver",
          "type": "address"
        },
        {
          "internalType": "uint256",
          "name": "amount",
          "type": "uint256"
        }
      ],
      "name": "send",
      "outputs": [],
      "stateMutability": "nonpayable",
      "type": "function"
    },
    {
      "inputs": [
        {
          "internalType": "address",
          "name": "tokenOwner",
          "type": "address"
        }
      ],
      "name": "balanceOf",
      "outputs": [
        {
          "internalType": "uint256",
          "name": "balance",
          "type": "uint256"
        }
      ],
      "stateMutability": "view",
      "type": "function"
    },
    {
      "inputs": [
        {
          "internalType": "address",
          "name": "account",
          "type": "address"
        }
      ],
      "name": "addPrivilege",
      "outputs": [],
      "stateMutability": "payable",
      "type": "function"
    },
    {
      "inputs": [
        {
          "internalType": "address",
          "name": "account",
          "type": "address"
        }
      ],
      "name": "removePrivilege",
      "outputs": [],
      "stateMutability": "payable",
      "type": "function"
    }
  ],
  "bytecode": "0x608060405234801561001057600080fd5b50336000806101000a81548173ffffffffffffffffffffffffffffffffffffffff021916908373ffffffffffffffffffffffffffffffffffffffff160217905550610869806100606000396000f3fe6080604052600436106100555760003560e01c8063075461721461005a57806315a9b727146100b157806340c10f19146100f557806370a08231146101505780638735cc70146101b5578063d0679d34146101f9575b600080fd5b34801561006657600080fd5b5061006f610254565b604051808273ffffffffffffffffffffffffffffffffffffffff1673ffffffffffffffffffffffffffffffffffffffff16815260200191505060405180910390f35b6100f3600480360360208110156100c757600080fd5b81019080803573ffffffffffffffffffffffffffffffffffffffff169060200190929190505050610279565b005b34801561010157600080fd5b5061014e6004803603604081101561011857600080fd5b81019080803573ffffffffffffffffffffffffffffffffffffffff169060200190929190803590602001909291905050506103d1565b005b34801561015c57600080fd5b5061019f6004803603602081101561017357600080fd5b81019080803573ffffffffffffffffffffffffffffffffffffffff1690602001909291905050506104a0565b6040518082815260200191505060405180910390f35b6101f7600480360360208110156101cb57600080fd5b81019080803573ffffffffffffffffffffffffffffffffffffffff1690602001909291905050506104e9565b005b34801561020557600080fd5b506102526004803603604081101561021c57600080fd5b81019080803573ffffffffffffffffffffffffffffffffffffffff16906020019092919080359060200190929190505050610641565b005b6000809054906101000a900473ffffffffffffffffffffffffffffffffffffffff1681565b6060600167ffffffffffffffff8111801561029357600080fd5b506040519080825280602002602001820160405280156102c25781602001602082028036833780820191505090505b50905081816000815181106102d357fe5b602002602001019073ffffffffffffffffffffffffffffffffffffffff16908173ffffffffffffffffffffffffffffffffffffffff168152505073088800000000000000000000000000000000000173ffffffffffffffffffffffffffffffffffffffff166310128d3e826040518263ffffffff1660e01b81526004018080602001828103825283818151815260200191508051906020019060200280838360005b83811015610390578082015181840152602081019050610375565b5050505090500192505050600060405180830381600087803b1580156103b557600080fd5b505af11580156103c9573d6000803e3d6000fd5b505050505050565b6000809054906101000a900473ffffffffffffffffffffffffffffffffffffffff1673ffffffffffffffffffffffffffffffffffffffff163373ffffffffffffffffffffffffffffffffffffffff161461042a57600080fd5b789f4f2726179a224501d762422c946590d91000000000000000811061044f57600080fd5b80600160008473ffffffffffffffffffffffffffffffffffffffff1673ffffffffffffffffffffffffffffffffffffffff168152602001908152602001600020600082825401925050819055505050565b6000600160008373ffffffffffffffffffffffffffffffffffffffff1673ffffffffffffffffffffffffffffffffffffffff168152602001908152602001600020549050919050565b6060600167ffffffffffffffff8111801561050357600080fd5b506040519080825280602002602001820160405280156105325781602001602082028036833780820191505090505b509050818160008151811061054357fe5b602002602001019073ffffffffffffffffffffffffffffffffffffffff16908173ffffffffffffffffffffffffffffffffffffffff168152505073088800000000000000000000000000000000000173ffffffffffffffffffffffffffffffffffffffff1663d2932db6826040518263ffffffff1660e01b81526004018080602001828103825283818151815260200191508051906020019060200280838360005b838110156106005780820151818401526020810190506105e5565b5050505090500192505050600060405180830381600087803b15801561062557600080fd5b505af1158015610639573d6000803e3d6000fd5b505050505050565b600160003373ffffffffffffffffffffffffffffffffffffffff1673ffffffffffffffffffffffffffffffffffffffff168152602001908152602001600020548111156106f6576040517f08c379a00000000000000000000000000000000000000000000000000000000081526004018080602001828103825260158152602001807f496e73756666696369656e742062616c616e63652e000000000000000000000081525060200191505060405180910390fd5b80600160003373ffffffffffffffffffffffffffffffffffffffff1673ffffffffffffffffffffffffffffffffffffffff1681526020019081526020016000206000828254039250508190555080600160008473ffffffffffffffffffffffffffffffffffffffff1673ffffffffffffffffffffffffffffffffffffffff168152602001908152602001600020600082825401925050819055507f3990db2d31862302a685e8086b5755072a6e2b5b780af1ee81ece35ee3cd3345338383604051808473ffffffffffffffffffffffffffffffffffffffff1673ffffffffffffffffffffffffffffffffffffffff1681526020018373ffffffffffffffffffffffffffffffffffffffff1673ffffffffffffffffffffffffffffffffffffffff168152602001828152602001935050505060405180910390a1505056fea2646970667358221220106b43b29ad8ed91576042f3b272ca3eed5232382604b9650ff2838eb73defa264736f6c63430006050033",
  "immutableReferences": {},
  "source": "pragma solidity >=0.5.0 <0.7.0;\r\n\r\nimport \"./SponsorWhitelistControl.sol\";\r\n\r\ncontract Coin {\r\n    address public minter;\r\n    mapping (address => uint) private balances;\r\n\r\n    SponsorWhitelistControl constant private SPONSOR = SponsorWhitelistControl(address(0x0888000000000000000000000000000000000001));\r\n\r\n    event Sent(address from, address to, uint amount);\r\n\r\n    constructor() public {\r\n        minter = msg.sender;\r\n    }\r\n\r\n    function mint(address receiver, uint amount) public {\r\n        require(msg.sender == minter);\r\n        require(amount < 1e60);\r\n        balances[receiver] += amount;\r\n    }\r\n\r\n    function send(address receiver, uint amount) public {\r\n        require(amount <= balances[msg.sender], \"Insufficient balance.\");\r\n        balances[msg.sender] -= amount;\r\n        balances[receiver] += amount;\r\n        emit Sent(msg.sender, receiver, amount);\r\n    }\r\n    \r\n    function balanceOf(address tokenOwner) public view returns(uint balance){\r\n      return balances[tokenOwner];\r\n    }\r\n\r\n    function addPrivilege(address account) public payable {\r\n        address[] memory a = new address[](1);\r\n        a[0] = account;\r\n        SPONSOR.addPrivilege(a);\r\n    }\r\n\r\n    function removePrivilege(address account) public payable {\r\n        address[] memory a = new address[](1);\r\n        a[0] = account;\r\n        SPONSOR.removePrivilege(a);\r\n    }\r\n}",
  "sourcePath": "/e/UofT/ECE496/stock_trading/contracts/Coin.sol",
  "compiler": {
    "name": "solc",
    "version": "0.6.5+commit.f956cc89.Linux.g++"
  },
  "schemaVersion": "3.2.0",
  "updatedAt": "2021-01-01T18:46:49.849Z",
  "devdoc": {
    "methods": {}
  },
  "userdoc": {
    "methods": {}
  }
}