{
  "contractName": "SponsorWhitelistControl",
  "abi": [
    {
      "inputs": [
        {
          "internalType": "address",
          "name": "contractAddr",
          "type": "address"
        }
      ],
      "name": "getSponsorForGas",
      "outputs": [
        {
          "internalType": "address",
          "name": "",
          "type": "address"
        }
      ],
      "stateMutability": "view",
      "type": "function"
    },
    {
      "inputs": [
        {
          "internalType": "address",
          "name": "contractAddr",
          "type": "address"
        }
      ],
      "name": "getSponsoredBalanceForGas",
      "outputs": [
        {
          "internalType": "uint256",
          "name": "",
          "type": "uint256"
        }
      ],
      "stateMutability": "view",
      "type": "function"
    },
    {
      "inputs": [
        {
          "internalType": "address",
          "name": "contractAddr",
          "type": "address"
        }
      ],
      "name": "getSponsoredGasFeeUpperBound",
      "outputs": [
        {
          "internalType": "uint256",
          "name": "",
          "type": "uint256"
        }
      ],
      "stateMutability": "view",
      "type": "function"
    },
    {
      "inputs": [
        {
          "internalType": "address",
          "name": "contractAddr",
          "type": "address"
        }
      ],
      "name": "getSponsorForCollateral",
      "outputs": [
        {
          "internalType": "address",
          "name": "",
          "type": "address"
        }
      ],
      "stateMutability": "view",
      "type": "function"
    },
    {
      "inputs": [
        {
          "internalType": "address",
          "name": "contractAddr",
          "type": "address"
        }
      ],
      "name": "getSponsoredBalanceForCollateral",
      "outputs": [
        {
          "internalType": "uint256",
          "name": "",
          "type": "uint256"
        }
      ],
      "stateMutability": "view",
      "type": "function"
    },
    {
      "inputs": [
        {
          "internalType": "address",
          "name": "contractAddr",
          "type": "address"
        },
        {
          "internalType": "address",
          "name": "user",
          "type": "address"
        }
      ],
      "name": "isWhitelisted",
      "outputs": [
        {
          "internalType": "bool",
          "name": "",
          "type": "bool"
        }
      ],
      "stateMutability": "view",
      "type": "function"
    },
    {
      "inputs": [
        {
          "internalType": "address",
          "name": "contractAddr",
          "type": "address"
        }
      ],
      "name": "isAllWhitelisted",
      "outputs": [
        {
          "internalType": "bool",
          "name": "",
          "type": "bool"
        }
      ],
      "stateMutability": "view",
      "type": "function"
    },
    {
      "inputs": [
        {
          "internalType": "address",
          "name": "contractAddr",
          "type": "address"
        },
        {
          "internalType": "address[]",
          "name": "addresses",
          "type": "address[]"
        }
      ],
      "name": "addPrivilegeByAdmin",
      "outputs": [],
      "stateMutability": "nonpayable",
      "type": "function"
    },
    {
      "inputs": [
        {
          "internalType": "address",
          "name": "contractAddr",
          "type": "address"
        },
        {
          "internalType": "address[]",
          "name": "addresses",
          "type": "address[]"
        }
      ],
      "name": "removePrivilegeByAdmin",
      "outputs": [],
      "stateMutability": "nonpayable",
      "type": "function"
    },
    {
      "inputs": [
        {
          "internalType": "address",
          "name": "contractAddr",
          "type": "address"
        },
        {
          "internalType": "uint256",
          "name": "upperBound",
          "type": "uint256"
        }
      ],
      "name": "setSponsorForGas",
      "outputs": [],
      "stateMutability": "payable",
      "type": "function"
    },
    {
      "inputs": [
        {
          "internalType": "address",
          "name": "contractAddr",
          "type": "address"
        }
      ],
      "name": "setSponsorForCollateral",
      "outputs": [],
      "stateMutability": "payable",
      "type": "function"
    },
    {
      "inputs": [
        {
          "internalType": "address[]",
          "name": "",
          "type": "address[]"
        }
      ],
      "name": "addPrivilege",
      "outputs": [],
      "stateMutability": "nonpayable",
      "type": "function"
    },
    {
      "inputs": [
        {
          "internalType": "address[]",
          "name": "",
          "type": "address[]"
        }
      ],
      "name": "removePrivilege",
      "outputs": [],
      "stateMutability": "nonpayable",
      "type": "function"
    }
  ],
  "bytecode": "0x608060405234801561001057600080fd5b50610741806100206000396000f3fe6080604052600436106100c25760003560e01c80638382c3a71161007f578063d2932db611610059578063d2932db61461028f578063d47e9a57146102b8578063d665f9dd146102f5578063e66c1bea14610332576100c2565b80638382c3a7146101d8578063b3b28fac14610215578063b6b3527214610252576100c2565b806310128d3e146100c7578063217e055b146100f057806322effe841461011957806333a1af31146101425780633e3e64281461017f57806379b47faa1461019b575b600080fd5b3480156100d357600080fd5b506100ee60048036038101906100e9919061054a565b61034e565b005b3480156100fc57600080fd5b50610117600480360381019061011291906104ba565b610351565b005b34801561012557600080fd5b50610140600480360381019061013b91906104ba565b610355565b005b34801561014e57600080fd5b5061016960048036038101906101649190610455565b610359565b60405161017691906105b8565b60405180910390f35b6101996004803603810190610194919061050e565b610360565b005b3480156101a757600080fd5b506101c260048036038101906101bd9190610455565b610364565b6040516101cf91906105d3565b60405180910390f35b3480156101e457600080fd5b506101ff60048036038101906101fa9190610455565b61036b565b60405161020c91906105b8565b60405180910390f35b34801561022157600080fd5b5061023c60048036038101906102379190610455565b610372565b60405161024991906105ee565b60405180910390f35b34801561025e57600080fd5b506102796004803603810190610274919061047e565b610379565b60405161028691906105d3565b60405180910390f35b34801561029b57600080fd5b506102b660048036038101906102b1919061054a565b610381565b005b3480156102c457600080fd5b506102df60048036038101906102da9190610455565b610384565b6040516102ec91906105ee565b60405180910390f35b34801561030157600080fd5b5061031c60048036038101906103179190610455565b61038b565b60405161032991906105ee565b60405180910390f35b61034c60048036038101906103479190610455565b610392565b005b50565b5050565b5050565b6000919050565b5050565b6000919050565b6000919050565b6000919050565b600092915050565b50565b6000919050565b6000919050565b50565b60006103a86103a38461063a565b610609565b905080838252602082019050828560208602820111156103c757600080fd5b60005b858110156103f757816103dd8882610401565b8452602084019350602083019250506001810190506103ca565b5050509392505050565b600081359050610410816106dd565b92915050565b600082601f83011261042757600080fd5b8135610437848260208601610395565b91505092915050565b60008135905061044f816106f4565b92915050565b60006020828403121561046757600080fd5b600061047584828501610401565b91505092915050565b6000806040838503121561049157600080fd5b600061049f85828601610401565b92505060206104b085828601610401565b9150509250929050565b600080604083850312156104cd57600080fd5b60006104db85828601610401565b925050602083013567ffffffffffffffff8111156104f857600080fd5b61050485828601610416565b9150509250929050565b6000806040838503121561052157600080fd5b600061052f85828601610401565b925050602061054085828601610440565b9150509250929050565b60006020828403121561055c57600080fd5b600082013567ffffffffffffffff81111561057657600080fd5b61058284828501610416565b91505092915050565b61059481610666565b82525050565b6105a381610678565b82525050565b6105b2816106a4565b82525050565b60006020820190506105cd600083018461058b565b92915050565b60006020820190506105e8600083018461059a565b92915050565b600060208201905061060360008301846105a9565b92915050565b6000604051905081810181811067ffffffffffffffff821117156106305761062f6106ae565b5b8060405250919050565b600067ffffffffffffffff821115610655576106546106ae565b5b602082029050602081019050919050565b600061067182610684565b9050919050565b60008115159050919050565b600073ffffffffffffffffffffffffffffffffffffffff82169050919050565b6000819050919050565b7f4e487b7100000000000000000000000000000000000000000000000000000000600052604160045260246000fd5b6106e681610666565b81146106f157600080fd5b50565b6106fd816106a4565b811461070857600080fd5b5056fea26469706673582212209a8944cdb5950cfaeb9b2891ae165874a6049061d1c840bd3f77aeba71496f4664736f6c63430008000033",
  "immutableReferences": {},
  "source": "pragma solidity >=0.4.15;\r\n\r\ncontract SponsorWhitelistControl {\r\n  /*** Query Functions ***/\r\n  /**\r\n    * @dev get gas sponsor address of specific contract\r\n    * @param contractAddr The address of the sponsored contract\r\n    */\r\n  function getSponsorForGas(address contractAddr) public view returns (address) {}\r\n\r\n  /**\r\n    * @dev get current Sponsored Balance for gas\r\n    * @param contractAddr The address of the sponsored contract\r\n    */\r\n  function getSponsoredBalanceForGas(address contractAddr) public view returns (uint) {}\r\n\r\n  /**\r\n    * @dev get current Sponsored Gas fee upper bound\r\n    * @param contractAddr The address of the sponsored contract\r\n    */\r\n  function getSponsoredGasFeeUpperBound(address contractAddr) public view returns (uint) {}\r\n\r\n  /**\r\n    * @dev get collateral sponsor address\r\n    * @param contractAddr The address of the sponsored contract\r\n    */\r\n  function getSponsorForCollateral(address contractAddr) public view returns (address) {}\r\n\r\n  /**\r\n    * @dev get current Sponsored Balance for collateral\r\n    * @param contractAddr The address of the sponsored contract\r\n    */\r\n  function getSponsoredBalanceForCollateral(address contractAddr) public view returns (uint) {}\r\n\r\n  /**\r\n    * @dev check if a user is in a contract's whitelist\r\n    * @param contractAddr The address of the sponsored contract\r\n    * @param user The address of contract user\r\n    */\r\n  function isWhitelisted(address contractAddr, address user) public view returns (bool) {}\r\n\r\n  /**\r\n    * @dev check if all users are in a contract's whitelist\r\n    * @param contractAddr The address of the sponsored contract\r\n    */\r\n  function isAllWhitelisted(address contractAddr) public view returns (bool) {}\r\n\r\n  /*** for contract admin only **/\r\n  /**\r\n    * @dev contract admin add user to whitelist\r\n    * @param contractAddr The address of the sponsored contract\r\n    * @param addresses The user address array\r\n    */\r\n  function addPrivilegeByAdmin(address contractAddr, address[] memory addresses) public {}\r\n\r\n  /**\r\n    * @dev contract admin remove user from whitelist\r\n    * @param contractAddr The address of the sponsored contract\r\n    * @param addresses The user address array\r\n    */\r\n  function removePrivilegeByAdmin(address contractAddr, address[] memory addresses) public {}\r\n\r\n  // ------------------------------------------------------------------------\r\n  // Someone will sponsor the gas cost for contract `contractAddr` with an\r\n  // `upper_bound` for a single transaction.\r\n  // ------------------------------------------------------------------------\r\n  function setSponsorForGas(address contractAddr, uint upperBound) public payable {}\r\n\r\n  // ------------------------------------------------------------------------\r\n  // Someone will sponsor the storage collateral for contract `contractAddr`.\r\n  // ------------------------------------------------------------------------\r\n  function setSponsorForCollateral(address contractAddr) public payable {}\r\n\r\n  // ------------------------------------------------------------------------\r\n  // Add commission privilege for address `user` to some contract.\r\n  // ------------------------------------------------------------------------\r\n  function addPrivilege(address[] memory) public {}\r\n\r\n  // ------------------------------------------------------------------------\r\n  // Remove commission privilege for address `user` from some contract.\r\n  // ------------------------------------------------------------------------\r\n  function removePrivilege(address[] memory) public {}\r\n}",
  "sourcePath": "E:/UofT/ECE496/stock_trading/contracts/SponsorWhitelistControl.sol",
  "compiler": {
    "name": "solc",
    "version": "0.8.0+commit.c7dfd78e.Emscripten.clang"
  },
  "schemaVersion": "3.3.4",
  "updatedAt": "2021-03-26T16:54:50.413Z",
  "devdoc": {
    "kind": "dev",
    "methods": {
      "addPrivilegeByAdmin(address,address[])": {
        "details": "contract admin add user to whitelist",
        "params": {
          "addresses": "The user address array",
          "contractAddr": "The address of the sponsored contract"
        }
      },
      "getSponsorForCollateral(address)": {
        "details": "get collateral sponsor address",
        "params": {
          "contractAddr": "The address of the sponsored contract"
        }
      },
      "getSponsorForGas(address)": {
        "details": "get gas sponsor address of specific contract",
        "params": {
          "contractAddr": "The address of the sponsored contract"
        }
      },
      "getSponsoredBalanceForCollateral(address)": {
        "details": "get current Sponsored Balance for collateral",
        "params": {
          "contractAddr": "The address of the sponsored contract"
        }
      },
      "getSponsoredBalanceForGas(address)": {
        "details": "get current Sponsored Balance for gas",
        "params": {
          "contractAddr": "The address of the sponsored contract"
        }
      },
      "getSponsoredGasFeeUpperBound(address)": {
        "details": "get current Sponsored Gas fee upper bound",
        "params": {
          "contractAddr": "The address of the sponsored contract"
        }
      },
      "isAllWhitelisted(address)": {
        "details": "check if all users are in a contract's whitelist",
        "params": {
          "contractAddr": "The address of the sponsored contract"
        }
      },
      "isWhitelisted(address,address)": {
        "details": "check if a user is in a contract's whitelist",
        "params": {
          "contractAddr": "The address of the sponsored contract",
          "user": "The address of contract user"
        }
      },
      "removePrivilegeByAdmin(address,address[])": {
        "details": "contract admin remove user from whitelist",
        "params": {
          "addresses": "The user address array",
          "contractAddr": "The address of the sponsored contract"
        }
      }
    },
    "version": 1
  },
  "userdoc": {
    "kind": "user",
    "methods": {},
    "version": 1
  }
}